:020000040800F2
:1000000040080020CD010008ED0E0008410E000858
:10001000E90E000893050008E11700080000000041
:10002000000000000000000000000000851400082F
:10003000FD050008000000008D1200087115000881
:10004000E7010008E7010008E7010008E7010008F0
:10005000E7010008E701000841080008210900083D
:100060002B090008350900083F090008E7010008CE
:10007000E7010008E7010008E7010008E7010008C0
:10008000E7010008E7010008E7010008E7010008B0
:10009000E7010008E7010008E70100084909000836
:1000A000E7010008D5150008E7010008E70100088E
:1000B000F51500080116000811160008E7010008F0
:1000C000E7010008E7010008E7010008E701000870
:1000D000E7010008E7010008E7010008E701000860
:1000E0004D080008E7010008E7010008E7010008E3
:1000F00051160008E7010008E7010008E7010008C1
:10010000E7010008E701000821160008E7010008E0
:10011000E7010008E7010008311600084116000851
:10012000E7010008E7010008E7010008E70100080F
:1001300000F002F800F03AF80AA090E8000C8244BF
:100140008344AAF10107DA4501D100F02FF8AFF29C
:10015000090EBAE80F0013F0010F18BFFB1A43F0A5
:1001600001031847F81D0000181E0000103A24BFB4
:1001700078C878C1FAD8520724BF30C830C144BF0C
:1001800004680C607047000000230024002500264E
:10019000103A28BF78C1FBD8520728BF30C148BFEA
:1001A0000B6070471FB51FBD10B510BD00F031F8D2
:1001B0001146FFF7F7FF01F0CBFB00F04FF803B457
:1001C000FFF7F2FF03BC00F057F800000948804732
:1001D00009480047FEE7FEE7FEE7FEE7FEE7FEE729
:1001E000FEE7FEE7FEE7FEE704480549054A064B41
:1001F000704700007515000831010008400200201A
:100200004008002040040020400400207047704750
:100210007047754600F02CF8AE4605006946534617
:1002200020F00700854618B020B5FFF7DDFFBDE8D8
:1002300020404FF000064FF000074FF000084FF04D
:10024000000B21F00701AC46ACE8C009ACE8C009DE
:10025000ACE8C009ACE8C0098D46704710B504464B
:10026000AFF300802046BDE81040FFF7A8BF0000B4
:1002700000487047DC01002001491820ABBEFEE7B2
:10028000260002007047000070B504460E46A089A3
:1002900001F057F8054605EB8501094A02EB81019B
:1002A0006068486005EB8500114641F8206005EB69
:1002B000850051F8200008B9012070BD0020FCE73E
:1002C0007C0000200146174A881A914221D00CDC9C
:1002D000B1F1804F15D014480844A0B1B0F5806F3B
:1002E00013D0B0F5006F1AD111E0B0F5806F12D0C5
:1002F000B0F58E3F03D0B0F5923F10D10DE019203C
:1003000070471C20FCE71D20FAE71E20F8E732208A
:10031000F6E73620F4E73720F2E72C20F0E700205C
:10032000EEE700000010004000FCFFBF0146174A46
:10033000881A914221D00CDCB1F1804F15D01448BD
:100340000844A0B1B0F5806F13D0B0F5006F1AD19A
:1003500011E0B0F5806F12D0B0F58E3F03D0B0F54C
:10036000923F10D10DE0002070470120FCE70220F1
:10037000FAE70320F8E70420F6E70520F4E7062073
:10038000F2E70720F0E7FF20EEE700000010004052
:1003900000FCFFBF0146184A881A914222D00CDCAB
:1003A000B1F1804F16D015480844A8B1B0F5806F60
:1003B00014D0B0F5006F1CD112E0B0F5806F13D0EF
:1003C000B0F58E3F03D0B0F5923F12D10EE04FF45E
:1003D000006070470120FCE70220FAE70420F8E7FC
:1003E0000820F6E71020F4E72020F2E74FF4005051
:1003F000EFE7FF20EDE700000010004000FCFFBF2A
:10040000F8B504460F4615461E463946E06801F029
:1004100027F901223946E06801F042F9E068FFF768
:1004200051FFC0B28DF8000001208DF803008DF857
:1004300001508DF80260684600F05AFDF8BD0000DA
:1004400070B504460E460EB9022070BD6661E068C4
:10045000FFF76CFF0546FF2D02D0024840F825400B
:100460000020F2E7BC0100202DE9F05F04460D46B4
:1004700016461F46DDE90B9ADDF8288018488542AC
:1004800002D01848854207D12846FFF783FF8346EC
:10049000012100F0E7FF06E02846FFF77BFF8346D7
:1004A000012100F0CFFF10A02061E560E680A78069
:1004B000A4F80080A4F802900949E068884203D0BB
:1004C0000849E068884202D184F808A001E00020D1
:1004D00020722146E06801F0EDF8BDE8F09F0000D1
:1004E000002C01400034014044656661756C745F06
:1004F000557365724C6162656C0000002DE9FF4721
:100500000446A06800F048FC07460121384600F088
:10051000A9FF0121084600F0A5FFA06800F064FFD4
:100520008046A08900F00DFF8146A08900F0AFFE53
:100530000546284600F086FC0646207C8DF80F0014
:10054000A089ADF80C0003208DF80E0003A9A06867
:1005500000F088FB4946404600F064FB019501200D
:100560008DF80A00A07B8DF80800E07B8DF809006B
:1005700001A800F055FA8DF8006001208DF8030005
:100580008DF801008DF80200684600F0B1FCBDE86E
:10059000FF8700BFFEE700000EB5002042F20F7299
:1005A000CDE9002041F61F4302461149029011484F
:1005B000FFF75AFF01231A4619460E48FFF720FF9E
:1005C0000D490C48FFF73CFF00BF0A49C8680121EC
:1005D00001F046F807490122C868114601F060F8A9
:1005E0000449C868012101F03EF800BF0EBD0000BB
:1005F000002C014060000020E5150008704700B5A0
:10060000034603E04FF47A7000F005F8181EA3F1DA
:100610000103F7D100BD00EBC001C9004FF0E0229B
:100620005161002191610521116100BF4FF0E0216E
:10063000096901F480310029F8D004214FF0E0224B
:100640001161704710B500F01FFD05A20121084699
:1006500000F0E8FD4FF4FA70FFF7D1FF10BD000085
:100660004F4B00001CB500F0D3FB00909DF800003C
:100670008DF804009DF801008DF805009DF802003A
:100680008DF8060000F0BEFB04469DF806005849B0
:10069000097888420AD09DF80620022301211846D5
:1006A00000F09EFD9DF80600514908709DF8050078
:1006B0005049097888420FD04FA20321022000F050
:1006C000B1FD9DF8052002230421184600F088FDA5
:1006D0009DF80500474908709DF8040047490978CE
:1006E00088420FD044A20621022000F09BFD9DF815
:1006F000042002230721184600F072FD9DF8040033
:100700003E4908703E4890F9000084420FD000F046
:1007100027FC3CA20121084600F084FDFF20374958
:100720000870344908703249087035480470012C4B
:100730001BD100F061FB34490860084600683C2189
:1007400090FBF1F201FB12003C3090FBF1F201FB57
:1007500012002D490860084600782C4908702CA228
:100760000121032000F05EFD40E0022C1BD100F0CF
:1007700043FB25490860084600683C2190FBF1F2E4
:1007800001FB12003C3090FBF1F201FB12001E490C
:100790000860084600781D49487020A20121032006
:1007A00000F040FD22E0032C1BD100F025FB164990
:1007B000086008460068182190FBF1F201FB120066
:1007C000183090FBF1F201FB12000F490860084657
:1007D00000780E49887014A20121032000F022FD48
:1007E00004E014A20121032000F01CFD1CBD000048
:1007F00002000020010000203A000000000000205C
:10080000080000204F4B0000040000200A000020D8
:100810005365745F73656320202000005365745F27
:100820006D696E20202000005365745F686F7572DB
:100830002020000020202020202020202000000058
:1008400010B5012000F036F910BD000010B54FF4CE
:10085000806000F0D1F801280AD1800200F0C6F8CB
:100860002E48D0F8C80018B12C49D1F8C8008047EC
:100870004FF4006000F0C0F801280AD1C00200F077
:10088000B5F82648D0F8DC0018B12449D1F8DC00CE
:1008900080474FF4805000F0AFF801280AD10003E0
:1008A00000F0A4F81D48D0F8F00018B11B49D1F8A9
:1008B000F00080474FF4005000F09EF801280AD164
:1008C000400300F093F81548D0F8040118B113491B
:1008D000D1F8040180474FF4804000F08DF80128E2
:1008E0000AD1800300F082F80C48D0F8180118B142
:1008F0000A49D1F8180180474FF4004000F07CF815
:1009000001280AD1C00300F071F80448D0F82C0186
:1009100018B10249D1F82C01804710BD7C0000209D
:1009200010B5022000F0C6F810BD10B5042000F08C
:10093000C1F810BD10B5082000F0BCF810BD10B50E
:10094000102000F0B7F810BD10B5202000F054F8CA
:10095000012808D1202000F049F82348406E10B14A
:100960002149486E8047402000F046F8012808D110
:10097000402000F03BF81C48806F10B11A49886F86
:100980008047802000F038F801280AD1802000F04C
:100990002DF81548D0F88C0018B11349D1F88C0007
:1009A00080474FF4807000F027F801280AD1000238
:1009B00000F01CF80C48D0F8A00018B10A49D1F892
:1009C000A00080474FF4007000F016F801280AD10B
:1009D000400200F00BF80448D0F8B40018B1024906
:1009E000D1F8B400804710BD7C00002001490860A8
:1009F0007047000014040140014600200022074B0C
:100A00001B6803EA0102054B14331B680B4013B14A
:100A10000AB1012000E000207047000000040140FE
:100A2000002123498279002A3AD00A4612680368D5
:100A30009A430B461A600A1D126803689A430B1DFD
:100A40001A60027911440A6803681A430A60184A56
:100A50000832126803689A43154B08331A601A1D4E
:100A6000126803689A43124B0C331A604279102AB9
:100A70000ED11A1F126803681A430D4B08331A600F
:100A80001A1D126803681A43094B0C331A600DE0F3
:100A90000749427911440A6803681A430A6005E06D
:100AA000027911440A6803689A430A60704700009B
:100AB0000004014070B50446204600F0E8FB0546FE
:100AC000FFF79AFF012817D1204600F0E0FB05460A
:100AD000FFF78CFF204600F034FC00EB8000074954
:100AE00051F8200040B1204600F02BFC00EB8000C4
:100AF000024951F82050A84770BD00007C0000203A
:100B000070B506460D46144605B10CB9052070BDFA
:100B100029463046FFF7B8FB214606F11400FFF7DF
:100B2000B3FB0020F3E7000010B50221054800F0F8
:100B300024F930B904480068401E034908600120C8
:100B4000087110BD000C01401000002010B50121FB
:100B5000054800F012F930B904480068401C034908
:100B600008600020087110BD000C0140100000203A
:100B70000149086070470000100000202DE9F04195
:100B800004460D4616461F4604B115B90420BDE8BB
:100B9000F081A562A685E785A681A5600020A073E7
:100BA0000C20E07348202074002020602784E56139
:100BB0000021222001550C21232001554821242009
:100BC000015506A1A161002060612046FFF796FC57
:100BD00004F11400FFF792FC0020D8E7456E636F24
:100BE0006465725F4348310010B5FF200949087100
:100BF00002230122084907480830FFF7BFFF002001
:100C000004490860054A064902480830FFF778FFA2
:100C100010BD000010000020000C01404D0B00082A
:100C2000290B000830B500228B071C0F0F2303FA95
:100C300004F20B4B8C1053F824309343084C8D1066
:100C400044F8253023468C1053F824308C07240FA9
:100C500000FA04F42343024C8D1044F8253030BDD3
:100C6000080001402DE9F041024600250026002041
:100C700000230024002791F803C00CF00F0591F821
:100C800003C00CF0100CBCF1000F03D091F802C0AF
:100C90004CEA050591F800C0BCF1000F31D0146892
:100CA00000202BE04FF0010C0CFA00F3B1F800C06B
:100CB0000CEA03069E4220D183004FF00F0C0CFA81
:100CC00003F7BC4305FA03FC4CEA040491F803C0A3
:100CD000BCF1280F06D14FF0010C0CFA00FCC2F851
:100CE00014C00AE091F803C0BCF1480F05D14FF0E1
:100CF000010C0CFA00FCC2F810C0401C0828D1D32B
:100D00001460B1F800C0BCF1FF0F34DD546800205E
:100D10002EE000F1080C4FF0010808FA0CF3B1F8CE
:100D200000C00CEA03069E4221D183004FF00F0C55
:100D30000CFA03F7BC4305FA03FC4CEA040491F8EF
:100D400003C0BCF1280F05D100F1080C08FA0CF81B
:100D5000C2F8148091F803C0BCF1480F07D100F12C
:100D6000080C4FF0010808FA0CF8C2F81080401C7B
:100D70000828CED35460BDE8F08102460020936875
:100D80000B400BB1012000E0002070470AB1016167
:100D900000E04161704700000146154A881A9142FF
:100DA0001AD009DC1348084480B1B0F5806F0FD029
:100DB000B0F5006F19D10DE0B0F5806F0ED0B0F531
:100DC000006F0DD0B0F5406F0FD10BE004207047DD
:100DD0000820FCE71020FAE72020F8E74020F6E79B
:100DE0008020F4E74FF48070F1E7FF20EFE7000088
:100DF0000014014000F8FEBF014800687047000081
:100E000010000020014890F9000070470900002000
:100E100008B50A4800788DF80000084840788DF839
:100E20000100064880788DF80200BDF800100846E1
:100E30009DF8021040EA014008BD00000A000020B1
:100E400000BFFEE70146B1F5807F3BD012DC1029E0
:100E500030D008DC012925D0022925D0042925D04D
:100E600008293FD124E0202926D0402926D08029F6
:100E700038D125E0B1F5805F2CD009DCB1F5007FD9
:100E800022D0B1F5806F21D0B1F5006F2AD11FE0DB
:100E9000B1F5005F20D0B1F5804F1FD0B1F5004F04
:100EA00020D11DE0062070470720FCE70820FAE764
:100EB0000920F8E70A20F6E71720F4E71720F2E701
:100EC0001720F0E71720EEE71720ECE72820EAE7E5
:100ED0002820E8E72820E6E72820E4E72820E2E7C2
:100EE0002820E0E7FF20DEE700BFFEE770470000B4
:100EF00070B5002100230F22C47804B3154C246878
:100F000004F4E064C4F5E064210AC1F10403CA40BA
:100F1000447804FA03F184781440214309010E4C0B
:100F20000678A155047804F01F050124AC4005782B
:100F30006D11AD0005F1E025C5F8004109E0047828
:100F400004F01F050124AC40044D0678761145F8E5
:100F5000264070BD0CED00E000E400E080E100E020
:100F600070B500240EE00021204600F0EEF80025C8
:100F700004E0002000F07AF9681CC5B2802DF8DB8F
:100F8000601CC4B2082CEEDB70BD000008B5012166
:100F9000082000F067FA14208DF8030002208DF875
:100FA00002004020ADF8000069460A48FFF75AFEEB
:100FB0008020ADF8000069460648FFF753FE012285
:100FC00040210448FFF7E2FE012280210148FFF79B
:100FD000DDFE08BD000C014070B50546002417E099
:100FE00080202041284008B1012000E00020024676
:100FF00080210E48FFF7CAFE012240210B48FFF76F
:10100000C5FE002240210948FFF7C0FE601CC4B2A3
:10101000082CE5DB012240210448FFF7B7FE00223F
:1010200040210248FFF7B2FE70BD0000000C0140F5
:1010300010B5012280210948FFF7A8FE01224021B6
:101040000648FFF7A3FE002280210448FFF79EFE1A
:10105000002240210148FFF799FE10BD000C01401D
:1010600010B5002280210748FFF790FE01224021A1
:101070000448FFF78BFE012280210248FFF786FE1D
:1010800010BD0000000C014070B5002406E00025F2
:1010900000E06D1CB5F57A7FFBD3641CB4F57A7F54
:1010A000F5D3FFF773FFAE2000F0D0F8D52000F0A5
:1010B000CDF8802000F0CAF8A82000F0C7F83F2043
:1010C00000F0C4F8D32000F0C1F8002000F0BEF812
:1010D000402000F0BBF8A12000F0B8F8C82000F0D4
:1010E000B5F8DA2000F0B2F8122000F0AFF8812055
:1010F00000F0ACF8CF2000F0A9F8D92000F0A6F855
:10110000F12000F0A3F8DB2000F0A0F8302000F080
:101110009DF8A42000F09AF8A62000F097F88D2002
:1011200000F094F8142000F091F8AF2000F08EF851
:10113000FFF716FF70BD10B50246012000E05043D6
:101140000B1EA1F10101FAD110BD70B505460C4688
:1011500045F0B00000F07AF8102141EA141000F0D8
:1011600075F804F00F0000F071F870BD2DE9F04142
:1011700005460E461746721ED206110E6A1E52060C
:10118000100EFFF7E2FF002409E0A7F12001134A47
:1011900002EB0111085D00F069F8601CC4B2082C74
:1011A000F3DB721ED206110E6A1E012303EB42020C
:1011B000D0B2FFF7CAFF00240BE0A7F12001074AD5
:1011C00002EB011204F10801505C00F04FF8601CC2
:1011D000C4B2082CF1DBBDE8F08100006C190008F6
:1011E0002DE9F04780460E4617461D46002415E0BF
:1011F000281B411E0A20FFF79EFFB7FBF0F00A21D3
:10120000B0FBF1F201FB120000F130093019C1B25C
:101210004A464046FFF7AAFF601CC4B2AC42E7DB77
:10122000BDE8F0872DE9F04107460E46154600243B
:1012300007E02A5D3019C1B23846FFF797FF601CFE
:10124000C4B2285D0028F4D1BDE8F08110B5044691
:10125000FFF7EEFE7820FFF7BFFE0020FFF7BCFE91
:101260002046FFF7B9FEFFF7FBFE10BD10B50446A0
:10127000FFF7DEFE7820FFF7AFFE4020FFF7ACFE61
:101280002046FFF7A9FEFFF7EBFE10BD70470146B1
:10129000B1F5807F3BD012DC102930D008DC012969
:1012A00025D0022925D0042925D0082947D124E0BA
:1012B000202926D0402926D0802940D125E0B1F52B
:1012C000805F30D009DCB1F5007F23D0B1F5806FAD
:1012D00023D0B1F5006F32D122E0B1F5005F25D007
:1012E000B1F5804F25D0B1F5004F28D124E0012081
:1012F00070470220FCE70420FAE70820F8E71020F6
:10130000F6E72020F4E74020F2E78020F0E74FF4F2
:101310008070EDE74FF40070EAE74FF48060E7E794
:101320004FF40060E4E74FF48050E1E74FF40050E1
:10133000DEE74FF48040DBE74FF40040D8E70020C1
:10134000D6E70146B1F5807F3BD012DC102930D0C2
:1013500008DC012925D0022925D0042925D0082917
:101360003FD124E0202926D0402926D0802938D119
:1013700025E0B1F5805F2CD009DCB1F5007F22D0EB
:10138000B1F5806F21D0B1F5006F2AD11FE0B1F522
:10139000005F20D0B1F5804F1FD0B1F5004F20D1B4
:1013A0001DE0002070470120FCE70220FAE703203F
:1013B000F8E70420F6E70520F4E70620F2E7072027
:1013C000F0E70820EEE70920ECE70A20EAE70B2027
:1013D000E8E70C20E6E70D20E4E70E20E2E70F2027
:1013E000E0E7FF20DEE700000146144A881A914238
:1013F0001AD009DC1248084480B1B0F5806F0FD0D4
:10140000B0F5006F18D10DE0B0F5806F0ED0B0F5DB
:10141000006F0DD0B0F5406F0ED10BE0002070478B
:101420000120FCE70220FAE70320F8E70420F6E7B2
:101430000520F4E70620F2E7FF20F0E70014014062
:1014400000F8FEBF29B1064AD2690243044BDA61B3
:1014500004E0034AD2698243014BDA61704700001D
:101460000010024029B1064A92690243044B9A6176
:1014700004E0034A92698243014B9A61704700007D
:1014800000100240704710B500F002F810BD0000D7
:101490000CB50020019000903348006840F4803083
:1014A0003149086000BF3048006800F40030009007
:1014B0000198401C0190009818B90198B0F5A06FF0
:1014C000F1D12948006800F4003010B101200090EB
:1014D00001E0002000900098012843D123480068D3
:1014E00040F01000214908600846006820F0030021
:1014F00008600846006840F0020008601A4840682A
:10150000194948600846406848600846406840F409
:10151000806048600846406820F47C1048600846B7
:10152000406840F4E81048600846006840F0807069
:10153000086000BF0C48006800F000700028F9D077
:101540000948406820F003000749486008464068A1
:1015500040F00200486000BF0348406800F00C0003
:101560000828F9D10CBD0000001002400020024004
:101570007047000010B51348006840F001001149A1
:10158000086008464068104908400E49486008460F
:1015900000680E4908400B4908600846006820F4BE
:1015A000802008600846406820F4FE0048604FF440
:1015B0001F008860FFF767FF4FF000600449086074
:1015C00010BD0000001002400000FFF8FFFFF6FE13
:1015D00008ED00E010B5024800F0BEF810BD0000B4
:1015E000002C014002480078401C014908707047F7
:1015F0000A00002010B54FF0804000F0ADF810BD9B
:1016000010B5024800F0A8F810BD0000000400402A
:1016100010B5024800F0A0F810BD0000000800401E
:1016200010B5024800F098F810BD0000000C004012
:1016300010B5024800F090F810BD00000010004006
:1016400010B5024800F088F810BD000000140040FA
:1016500010B5024800F080F810BD000000340140D1
:10166000CA430282704721B1028842F0010202801F
:1016700004E002884FF6FE731A400280704730B5CE
:101680000246002000230024158A05EA01039589FB
:1016900005EA010413B10CB1012000E0002030BDC7
:1016A0001AB183890B43838102E083898B43838151
:1016B00070470000002202881D4B98420ED01D4B3F
:1016C00098420BD0B0F1804F08D01B4B984205D008
:1016D0001A4B984202D01A4B984204D14FF68F739E
:1016E0001A404B881A43174B984207D0164B984222
:1016F00004D04FF6FF431A40CB881A4302808B88F0
:1017000083850B8803850A4B98420BD0094B98427E
:1017100008D00E4B984205D00D4B984202D00D4B8D
:10172000984201D10B7A038601238382704700001F
:10173000002C01400034014000040040000800403B
:10174000000C004000100040001400400040014028
:10175000004401400048014070B50546012128467B
:10176000FFF78DFF012818D101212846FFF778FFE8
:101770002846FEF7DBFD0446FF2C0DD0074850F845
:10178000240048B1054850F82400406920B10349BD
:1017900051F824104869804700BF70BDBC0100208B
:1017A0000E4800783C2806DB00200C4908700846EB
:1017B0004078401C4870094840783C2806DB0020EF
:1017C0000649487008468078401C88700348807835
:1017D000182802DB00200149887070470A000020A9
:1017E00000BFFEE71CB50446FFF712FB00909DF812
:1017F00000008DF804009DF801008DF805009DF8AB
:1018000002008DF80600012C04D19DF80400FFF7BA
:10181000AFF90CE0022C04D19DF80500FFF7A8F900
:1018200005E0032C03D19DF80600FFF7A1F984B170
:101830001548007868B900BF14490022C868012122
:10184000FFF72EFF1149C8680021FFF70CFF00BF0A
:1018500016E0ACB90C48007890B100BF0B49C868DD
:101860000121FFF7FDFE09490122C8681146FFF773
:1018700017FF0649C8680121FFF7F5FE00BF00BF4A
:10188000014804701CBD0000090000206000002019
:1018900070B504460E46154660696060A660A58175
:1018A0000020A0730C20E073482020742046FEF72F
:1018B00025FE70BD70B504460D4629462046FEF74C
:1018C000E3FC70BD10B509A00B4948600020887387
:1018D0000C20C87309480860102209490648FFF720
:1018E000D7FF06490448FFF7E5FF10BD6B65795F38
:1018F00073776974636800004800002005190008C8
:101900000018014010B51148007818B90120FFF700
:1019100069FF1AE00D480078012803D10220FFF783
:1019200061FF12E009480078022803D10320FFF785
:1019300059FF0AE005480078032803D10020FFF78B
:1019400051FF02E00020FFF74DFF10BD090000200D
:10195000FEF778FEFEF720FEFFF746F9FFF7B2FF2D
:1019600003E0FFF71DFFFEF77DFEFAE70000000031
:10197000000000000000000000000000000000F86F
:1019800000000000000000333000000000100C06D2
:10199000100C0600000000000000000040C078406D
:1019A000C0784000043F04043F040400007088FC39
:1019B00008300000001820FF211E0000F008F00091
:1019C000E018000000211C031E211E0000F0088802
:1019D000700000001E2123241927211010160E006C
:1019E000000000000000000000000000000000E017
:1019F000180402000000000718204000000204182C
:101A0000E00000000040201807000000404080F087
:101A1000804040000202010F01020200000000F0BD
:101A2000000000000101011F010101000000000091
:101A30000000000080B07000000000000000000006
:101A4000000000000001010101010101000000008F
:101A50000000000000303000000000000000000026
:101A600080601804006018060100000000E0100803
:101A70000810E000000F102020100F00001010F8D8
:101A8000000000000020203F202000000070080817
:101A90000888700000302824222130000030088897
:101AA000884830000018202020110E000000C020BF
:101AB00010F8000000070424243F240000F80888E0
:101AC000880808000019212020110E0000E010886D
:101AD00088180000000F112020110E00003808089F
:101AE000C83808000000003F0000000000708808AF
:101AF00008887000001C222121221C0000E0100830
:101B00000810E0000000312222110F00000000C088
:101B1000C000000000000030300000000000008025
:101B20000000000000008060000000000000804015
:101B3000201008000001020408102000404040402E
:101B40004040400004040404040404000008102081
:101B500040800000002010080402010000704808C6
:101B60000808F0000000003036010000C030C8282E
:101B7000E810E0000718272423140B000000C038E9
:101B8000E0000000203C23020227382008F8888863
:101B900088700000203F202020110E00C03008086F
:101BA00008083800071820202010080008F8080846
:101BB0000810E000203F202020100F0008F888883F
:101BC000E8081000203F20202320180008F888880B
:101BD000E8081000203F200003000000C030080883
:101BE0000838000007182020221E020008F808000C
:101BF0000008F808203F210101213F20000808F8D3
:101C0000080800000020203F2020000000000808F5
:101C1000F8080800C08080807F00000008F888C0B5
:101C200028180800203F20012638200008F8080066
:101C300000000000203F20202020300008F8F8009D
:101C4000F8F80800203F003F003F200008F830C0AF
:101C50000008F808203F200007183F00E01008089F
:101C60000810E0000F10202020100F0008F80808CE
:101C70000808F000203F210101010000E0100808E1
:101C80000810E0000F18242438504F0008F8888806
:101C900088887000203F2000030C302000708808E6
:101CA000080838000038202121221C00180808F8F4
:101CB000080818000000203F2000000008F8080075
:101CC0000008F808001F202020201F000878880046
:101CD00000C83808000007380E010000F80800F8B6
:101CE0000008F800033C0700073C03000818688060
:101CF0008068180820302C03032C30200838C800D6
:101D0000C83808000000203F200000001008080824
:101D1000C83808002038262120201800000000FEC6
:101D2000020202000000007F40404000000C30C072
:101D300000000000000000010638C000000202029E
:101D4000FE000000004040407F0000000000040250
:101D5000020204000000000000000000000000007B
:101D6000000000008080808080808080000202046B
:101D70000000000000000000000000000000808063
:101D8000808000000019242222223F2008F80080D1
:101D900080000000003F112020110E000000008094
:101DA00080800000000E1120202011000000008023
:101DB0008088F800000E112020103F200000808055
:101DC00080800000001F222222221300008080F069
:101DD000888888180020203F202000000000808094
:101DE00080808000006B94949493600008F80080D9
:101DF00080800000203F210000203F200080989834
:101E0000000000000020203F202000000000008093
:101E10009898000000C08080807F000008F80000D3
:101E200080808000203F24022D302000000808F828
:101E3000000000000020203F2020000080808080E3
:101E400080808000203F20003F20003F8080008075
:101E500080800000203F210000203F200000808083
:101E600080800000001F202020201F008080008034
:101E70008000000080FFA12020110E0000000080E3
:101E800080808000000E112020A0FF8080808000D4
:101E90008080800020203F21200001000000808001
:101EA000808080000033242424241900008080E0F6
:101EB000808000000000001F2020000080800000C3
:101EC00000808000001F202020103F2080808000A4
:101ED0000080808000010E300806010080800080B4
:101EE000008080800F300C030C300F0000808000D9
:101EF000808080000020312E0E3120008080800004
:101F00000080808080818E701806010000808080B3
:101F1000808080000021302C222130000000000051
:101F2000807C020200000000003F404000000000F2
:101F3000FF00000000000000FF0000000002027C23
:101F4000800000000040403F00000000000601014A
:101F50000202040400000000000000007C1F0008D2
:101F600000000020100000006C0100088C1F000819
:101F7000100000203008000088010008FFFFFF006B
:0C1F800000000000FF0000000000000056
:0400000508000131BD
:00000001FF
